{
  "_format": "hh-sol-artifact-1",
  "contractName": "SimpleStorage",
  "sourceName": "contracts/simpleStorage.sol",
  "abi": [
    {
      "inputs": [],
      "stateMutability": "nonpayable",
      "type": "constructor"
    },
    {
      "anonymous": false,
      "inputs": [
        {
          "indexed": false,
          "internalType": "string",
          "name": "newMessage",
          "type": "string"
        }
      ],
      "name": "MessageUpdated",
      "type": "event"
    },
    {
      "anonymous": false,
      "inputs": [
        {
          "indexed": true,
          "internalType": "address",
          "name": "oldOwner",
          "type": "address"
        },
        {
          "indexed": true,
          "internalType": "address",
          "name": "newOwner",
          "type": "address"
        }
      ],
      "name": "OwnerSet",
      "type": "event"
    },
    {
      "anonymous": false,
      "inputs": [
        {
          "indexed": false,
          "internalType": "uint256",
          "name": "newValue",
          "type": "uint256"
        }
      ],
      "name": "ValueUpdated",
      "type": "event"
    },
    {
      "inputs": [],
      "name": "getMessage",
      "outputs": [
        {
          "internalType": "string",
          "name": "",
          "type": "string"
        }
      ],
      "stateMutability": "view",
      "type": "function"
    },
    {
      "inputs": [],
      "name": "getValue",
      "outputs": [
        {
          "internalType": "uint256",
          "name": "",
          "type": "uint256"
        }
      ],
      "stateMutability": "view",
      "type": "function"
    },
    {
      "inputs": [],
      "name": "owner",
      "outputs": [
        {
          "internalType": "address",
          "name": "",
          "type": "address"
        }
      ],
      "stateMutability": "view",
      "type": "function"
    },
    {
      "inputs": [
        {
          "internalType": "string",
          "name": "_message",
          "type": "string"
        }
      ],
      "name": "setMessage",
      "outputs": [],
      "stateMutability": "nonpayable",
      "type": "function"
    },
    {
      "inputs": [
        {
          "internalType": "uint256",
          "name": "_value",
          "type": "uint256"
        }
      ],
      "name": "setValue",
      "outputs": [],
      "stateMutability": "nonpayable",
      "type": "function"
    }
  ],
  "bytecode": "0x6080604052348015600e575f5ffd5b50600280546001600160a01b031916339081179091556040515f907f342827c97908e5e2f71151c08502a66d44b6f758e3ac2f1de95f02eb95f0a735908290a361056d8061005b5f395ff3fe608060405234801561000f575f5ffd5b5060043610610064575f3560e01c8063552410771161004d57806355241077146100925780638da5cb5b146100a5578063ce6d41de146100ea575f5ffd5b80632096525514610068578063368b87721461007d575b5f5ffd5b5f546040519081526020015b60405180910390f35b61009061008b3660046102e7565b6100ff565b005b6100906100a0366004610355565b6101b6565b6002546100c59073ffffffffffffffffffffffffffffffffffffffff1681565b60405173ffffffffffffffffffffffffffffffffffffffff9091168152602001610074565b6100f2610257565b604051610074919061036c565b60025473ffffffffffffffffffffffffffffffffffffffff16331461016b5760405162461bcd60e51b815260206004820152600960248201527f4e6f74206f776e6572000000000000000000000000000000000000000000000060448201526064015b60405180910390fd5b600161017882848361044f565b507f8fae638bf5c6396194a6bb16601c4035a07fa48191638ff4102f0d96f14cfefb82826040516101aa929190610509565b60405180910390a15050565b60025473ffffffffffffffffffffffffffffffffffffffff16331461021d5760405162461bcd60e51b815260206004820152601560248201527f4f6e6c79206f776e65722063616e2075706461746500000000000000000000006044820152606401610162565b5f8190556040518181527f4273d0736f60e0dedfe745e86718093d8ec8646ebd2a60cd60643eeced5658119060200160405180910390a150565b606060018054610266906103cb565b80601f0160208091040260200160405190810160405280929190818152602001828054610292906103cb565b80156102dd5780601f106102b4576101008083540402835291602001916102dd565b820191905f5260205f20905b8154815290600101906020018083116102c057829003601f168201915b5050505050905090565b5f5f602083850312156102f8575f5ffd5b823567ffffffffffffffff81111561030e575f5ffd5b8301601f8101851361031e575f5ffd5b803567ffffffffffffffff811115610334575f5ffd5b856020828401011115610345575f5ffd5b6020919091019590945092505050565b5f60208284031215610365575f5ffd5b5035919050565b602081525f82518060208401525f5b81811015610398576020818601810151604086840101520161037b565b505f604082850101526040601f19601f83011684010191505092915050565b634e487b7160e01b5f52604160045260245ffd5b600181811c908216806103df57607f821691505b6020821081036103fd57634e487b7160e01b5f52602260045260245ffd5b50919050565b601f82111561044a57805f5260205f20601f840160051c810160208510156104285750805b601f840160051c820191505b81811015610447575f8155600101610434565b50505b505050565b67ffffffffffffffff831115610467576104676103b7565b61047b8361047583546103cb565b83610403565b5f601f8411600181146104ac575f85156104955750838201355b5f19600387901b1c1916600186901b178355610447565b5f83815260208120601f198716915b828110156104db57868501358255602094850194600190920191016104bb565b50868210156104f7575f1960f88860031b161c19848701351681555b505060018560011b0183555050505050565b60208152816020820152818360408301375f818301604090810191909152601f909201601f1916010191905056fea2646970667358221220de27b0a17c91dab493385b9f27e2825eaef53ce091cafd8bd32697da9367a11a64736f6c634300081b0033",
  "linkReferences": {},
  "deployedLinkReferences": {}
}